{
  "_format": "hh-sol-artifact-1",
  "contractName": "GPTMembership",
  "sourceName": "contracts/GPTMembership.sol",
  "abi": [
    {
      "inputs": [
        {
          "internalType": "string",
          "name": "_name",
          "type": "string"
        },
        {
          "internalType": "string",
          "name": "_symbol",
          "type": "string"
        }
      ],
      "stateMutability": "nonpayable",
      "type": "constructor"
    },
    {
      "anonymous": false,
      "inputs": [
        {
          "indexed": true,
          "internalType": "address",
          "name": "owner",
          "type": "address"
        },
        {
          "indexed": true,
          "internalType": "address",
          "name": "approved",
          "type": "address"
        },
        {
          "indexed": true,
          "internalType": "uint256",
          "name": "tokenId",
          "type": "uint256"
        }
      ],
      "name": "Approval",
      "type": "event"
    },
    {
      "anonymous": false,
      "inputs": [
        {
          "indexed": true,
          "internalType": "address",
          "name": "owner",
          "type": "address"
        },
        {
          "indexed": true,
          "internalType": "address",
          "name": "operator",
          "type": "address"
        },
        {
          "indexed": false,
          "internalType": "bool",
          "name": "approved",
          "type": "bool"
        }
      ],
      "name": "ApprovalForAll",
      "type": "event"
    },
    {
      "anonymous": false,
      "inputs": [
        {
          "indexed": true,
          "internalType": "address",
          "name": "from",
          "type": "address"
        },
        {
          "indexed": true,
          "internalType": "address",
          "name": "to",
          "type": "address"
        },
        {
          "indexed": true,
          "internalType": "uint256",
          "name": "tokenId",
          "type": "uint256"
        }
      ],
      "name": "Transfer",
      "type": "event"
    },
    {
      "inputs": [],
      "name": "MY_CONTRACT",
      "outputs": [
        {
          "internalType": "string",
          "name": "",
          "type": "string"
        }
      ],
      "stateMutability": "view",
      "type": "function"
    },
    {
      "inputs": [
        {
          "internalType": "address",
          "name": "to",
          "type": "address"
        },
        {
          "internalType": "uint256",
          "name": "tokenId",
          "type": "uint256"
        }
      ],
      "name": "approve",
      "outputs": [],
      "stateMutability": "nonpayable",
      "type": "function"
    },
    {
      "inputs": [
        {
          "internalType": "address",
          "name": "owner",
          "type": "address"
        }
      ],
      "name": "balanceOf",
      "outputs": [
        {
          "internalType": "uint256",
          "name": "",
          "type": "uint256"
        }
      ],
      "stateMutability": "view",
      "type": "function"
    },
    {
      "inputs": [
        {
          "internalType": "uint256",
          "name": "tokenId",
          "type": "uint256"
        }
      ],
      "name": "getApproved",
      "outputs": [
        {
          "internalType": "address",
          "name": "",
          "type": "address"
        }
      ],
      "stateMutability": "view",
      "type": "function"
    },
    {
      "inputs": [
        {
          "internalType": "uint256",
          "name": "_membershipId",
          "type": "uint256"
        }
      ],
      "name": "getMembership",
      "outputs": [
        {
          "components": [
            {
              "internalType": "uint256",
              "name": "id",
              "type": "uint256"
            },
            {
              "internalType": "string",
              "name": "name",
              "type": "string"
            },
            {
              "internalType": "uint256",
              "name": "cost",
              "type": "uint256"
            },
            {
              "internalType": "string",
              "name": "date",
              "type": "string"
            }
          ],
          "internalType": "struct GPTMembership.Membership",
          "name": "",
          "type": "tuple"
        }
      ],
      "stateMutability": "view",
      "type": "function"
    },
    {
      "inputs": [
        {
          "internalType": "uint256",
          "name": "_membershipId",
          "type": "uint256"
        }
      ],
      "name": "getMembershipsTaken",
      "outputs": [
        {
          "internalType": "uint256[]",
          "name": "",
          "type": "uint256[]"
        }
      ],
      "stateMutability": "view",
      "type": "function"
    },
    {
      "inputs": [
        {
          "internalType": "address",
          "name": "_address",
          "type": "address"
        }
      ],
      "name": "getUserMembership",
      "outputs": [
        {
          "components": [
            {
              "internalType": "uint256",
              "name": "id",
              "type": "uint256"
            },
            {
              "internalType": "uint256",
              "name": "membershipId",
              "type": "uint256"
            },
            {
              "internalType": "address",
              "name": "user",
              "type": "address"
            },
            {
              "internalType": "uint256",
              "name": "cost",
              "type": "uint256"
            },
            {
              "internalType": "string",
              "name": "expireDate",
              "type": "string"
            }
          ],
          "internalType": "struct GPTMembership.UserMembership",
          "name": "",
          "type": "tuple"
        }
      ],
      "stateMutability": "view",
      "type": "function"
    },
    {
      "inputs": [
        {
          "internalType": "uint256",
          "name": "",
          "type": "uint256"
        },
        {
          "internalType": "address",
          "name": "",
          "type": "address"
        }
      ],
      "name": "hasBought",
      "outputs": [
        {
          "internalType": "bool",
          "name": "",
          "type": "bool"
        }
      ],
      "stateMutability": "view",
      "type": "function"
    },
    {
      "inputs": [
        {
          "internalType": "address",
          "name": "owner",
          "type": "address"
        },
        {
          "internalType": "address",
          "name": "operator",
          "type": "address"
        }
      ],
      "name": "isApprovedForAll",
      "outputs": [
        {
          "internalType": "bool",
          "name": "",
          "type": "bool"
        }
      ],
      "stateMutability": "view",
      "type": "function"
    },
    {
      "inputs": [
        {
          "internalType": "string",
          "name": "_name",
          "type": "string"
        },
        {
          "internalType": "uint256",
          "name": "_cost",
          "type": "uint256"
        },
        {
          "internalType": "string",
          "name": "_date",
          "type": "string"
        }
      ],
      "name": "list",
      "outputs": [],
      "stateMutability": "nonpayable",
      "type": "function"
    },
    {
      "inputs": [
        {
          "internalType": "uint256",
          "name": "",
          "type": "uint256"
        },
        {
          "internalType": "uint256",
          "name": "",
          "type": "uint256"
        }
      ],
      "name": "membershipTaken",
      "outputs": [
        {
          "internalType": "address",
          "name": "",
          "type": "address"
        }
      ],
      "stateMutability": "view",
      "type": "function"
    },
    {
      "inputs": [],
      "name": "membershipTypes",
      "outputs": [
        {
          "internalType": "uint256",
          "name": "",
          "type": "uint256"
        }
      ],
      "stateMutability": "view",
      "type": "function"
    },
    {
      "inputs": [
        {
          "internalType": "uint256",
          "name": "",
          "type": "uint256"
        }
      ],
      "name": "memberships",
      "outputs": [
        {
          "internalType": "uint256",
          "name": "id",
          "type": "uint256"
        },
        {
          "internalType": "string",
          "name": "name",
          "type": "string"
        },
        {
          "internalType": "uint256",
          "name": "cost",
          "type": "uint256"
        },
        {
          "internalType": "string",
          "name": "date",
          "type": "string"
        }
      ],
      "stateMutability": "view",
      "type": "function"
    },
    {
      "inputs": [
        {
          "internalType": "uint256",
          "name": "",
          "type": "uint256"
        },
        {
          "internalType": "uint256",
          "name": "",
          "type": "uint256"
        }
      ],
      "name": "membershipsTaken",
      "outputs": [
        {
          "internalType": "uint256",
          "name": "",
          "type": "uint256"
        }
      ],
      "stateMutability": "view",
      "type": "function"
    },
    {
      "inputs": [
        {
          "internalType": "uint256",
          "name": "_membershipId",
          "type": "uint256"
        },
        {
          "internalType": "address",
          "name": "_user",
          "type": "address"
        },
        {
          "internalType": "string",
          "name": "_expireDate",
          "type": "string"
        }
      ],
      "name": "mint",
      "outputs": [],
      "stateMutability": "payable",
      "type": "function"
    },
    {
      "inputs": [],
      "name": "name",
      "outputs": [
        {
          "internalType": "string",
          "name": "",
          "type": "string"
        }
      ],
      "stateMutability": "view",
      "type": "function"
    },
    {
      "inputs": [],
      "name": "owner",
      "outputs": [
        {
          "internalType": "address",
          "name": "",
          "type": "address"
        }
      ],
      "stateMutability": "view",
      "type": "function"
    },
    {
      "inputs": [
        {
          "internalType": "uint256",
          "name": "tokenId",
          "type": "uint256"
        }
      ],
      "name": "ownerOf",
      "outputs": [
        {
          "internalType": "address",
          "name": "",
          "type": "address"
        }
      ],
      "stateMutability": "view",
      "type": "function"
    },
    {
      "inputs": [
        {
          "internalType": "address",
          "name": "from",
          "type": "address"
        },
        {
          "internalType": "address",
          "name": "to",
          "type": "address"
        },
        {
          "internalType": "uint256",
          "name": "tokenId",
          "type": "uint256"
        }
      ],
      "name": "safeTransferFrom",
      "outputs": [],
      "stateMutability": "nonpayable",
      "type": "function"
    },
    {
      "inputs": [
        {
          "internalType": "address",
          "name": "from",
          "type": "address"
        },
        {
          "internalType": "address",
          "name": "to",
          "type": "address"
        },
        {
          "internalType": "uint256",
          "name": "tokenId",
          "type": "uint256"
        },
        {
          "internalType": "bytes",
          "name": "data",
          "type": "bytes"
        }
      ],
      "name": "safeTransferFrom",
      "outputs": [],
      "stateMutability": "nonpayable",
      "type": "function"
    },
    {
      "inputs": [
        {
          "internalType": "address",
          "name": "operator",
          "type": "address"
        },
        {
          "internalType": "bool",
          "name": "approved",
          "type": "bool"
        }
      ],
      "name": "setApprovalForAll",
      "outputs": [],
      "stateMutability": "nonpayable",
      "type": "function"
    },
    {
      "inputs": [
        {
          "internalType": "bytes4",
          "name": "interfaceId",
          "type": "bytes4"
        }
      ],
      "name": "supportsInterface",
      "outputs": [
        {
          "internalType": "bool",
          "name": "",
          "type": "bool"
        }
      ],
      "stateMutability": "view",
      "type": "function"
    },
    {
      "inputs": [],
      "name": "symbol",
      "outputs": [
        {
          "internalType": "string",
          "name": "",
          "type": "string"
        }
      ],
      "stateMutability": "view",
      "type": "function"
    },
    {
      "inputs": [
        {
          "internalType": "uint256",
          "name": "tokenId",
          "type": "uint256"
        }
      ],
      "name": "tokenURI",
      "outputs": [
        {
          "internalType": "string",
          "name": "",
          "type": "string"
        }
      ],
      "stateMutability": "view",
      "type": "function"
    },
    {
      "inputs": [],
      "name": "totalMemberships",
      "outputs": [
        {
          "internalType": "uint256",
          "name": "",
          "type": "uint256"
        }
      ],
      "stateMutability": "view",
      "type": "function"
    },
    {
      "inputs": [
        {
          "internalType": "address",
          "name": "from",
          "type": "address"
        },
        {
          "internalType": "address",
          "name": "to",
          "type": "address"
        },
        {
          "internalType": "uint256",
          "name": "tokenId",
          "type": "uint256"
        }
      ],
      "name": "transferFrom",
      "outputs": [],
      "stateMutability": "nonpayable",
      "type": "function"
    },
    {
      "inputs": [
        {
          "internalType": "address",
          "name": "",
          "type": "address"
        }
      ],
      "name": "userMemberships",
      "outputs": [
        {
          "internalType": "uint256",
          "name": "id",
          "type": "uint256"
        },
        {
          "internalType": "uint256",
          "name": "membershipId",
          "type": "uint256"
        },
        {
          "internalType": "address",
          "name": "user",
          "type": "address"
        },
        {
          "internalType": "uint256",
          "name": "cost",
          "type": "uint256"
        },
        {
          "internalType": "string",
          "name": "expireDate",
          "type": "string"
        }
      ],
      "stateMutability": "view",
      "type": "function"
    },
    {
      "inputs": [],
      "name": "withdraw",
      "outputs": [],
      "stateMutability": "nonpayable",
      "type": "function"
    }
  ],
  "bytecode": "0x60806040523480156200001157600080fd5b50604051620048c3380380620048c383398181016040528101906200003791906200023b565b818181600090816200004a91906200050b565b5080600190816200005c91906200050b565b50505033600660006101000a81548173ffffffffffffffffffffffffffffffffffffffff021916908373ffffffffffffffffffffffffffffffffffffffff1602179055505050620005f2565b6000604051905090565b600080fd5b600080fd5b600080fd5b600080fd5b6000601f19601f8301169050919050565b7f4e487b7100000000000000000000000000000000000000000000000000000000600052604160045260246000fd5b6200011182620000c6565b810181811067ffffffffffffffff82111715620001335762000132620000d7565b5b80604052505050565b600062000148620000a8565b905062000156828262000106565b919050565b600067ffffffffffffffff821115620001795762000178620000d7565b5b6200018482620000c6565b9050602081019050919050565b60005b83811015620001b157808201518184015260208101905062000194565b60008484015250505050565b6000620001d4620001ce846200015b565b6200013c565b905082815260208101848484011115620001f357620001f2620000c1565b5b6200020084828562000191565b509392505050565b600082601f83011262000220576200021f620000bc565b5b815162000232848260208601620001bd565b91505092915050565b60008060408385031215620002555762000254620000b2565b5b600083015167ffffffffffffffff811115620002765762000275620000b7565b5b620002848582860162000208565b925050602083015167ffffffffffffffff811115620002a857620002a7620000b7565b5b620002b68582860162000208565b9150509250929050565b600081519050919050565b7f4e487b7100000000000000000000000000000000000000000000000000000000600052602260045260246000fd5b600060028204905060018216806200031357607f821691505b602082108103620003295762000328620002cb565b5b50919050565b60008190508160005260206000209050919050565b60006020601f8301049050919050565b600082821b905092915050565b600060088302620003937fffffffffffffffffffffffffffffffffffffffffffffffffffffffffffffffff8262000354565b6200039f868362000354565b95508019841693508086168417925050509392505050565b6000819050919050565b6000819050919050565b6000620003ec620003e6620003e084620003b7565b620003c1565b620003b7565b9050919050565b6000819050919050565b6200040883620003cb565b620004206200041782620003f3565b84845462000361565b825550505050565b600090565b6200043762000428565b62000444818484620003fd565b505050565b5b818110156200046c57620004606000826200042d565b6001810190506200044a565b5050565b601f821115620004bb5762000485816200032f565b620004908462000344565b81016020851015620004a0578190505b620004b8620004af8562000344565b83018262000449565b50505b505050565b600082821c905092915050565b6000620004e060001984600802620004c0565b1980831691505092915050565b6000620004fb8383620004cd565b9150826002028217905092915050565b6200051682620002c0565b67ffffffffffffffff811115620005325762000531620000d7565b5b6200053e8254620002fa565b6200054b82828562000470565b600060209050601f8311600181146200058357600084156200056e578287015190505b6200057a8582620004ed565b865550620005ea565b601f19841662000593866200032f565b60005b82811015620005bd5784890151825560018201915060208501945060208101905062000596565b86831015620005dd5784890151620005d9601f891682620004cd565b8355505b6001600288020188555050505b505050505050565b6142c180620006026000396000f3fe6080604052600436106101b75760003560e01c80639485cfed116100ec578063bcd57d041161008a578063d121968411610064578063d121968414610683578063e67e402c146106c0578063e985e9c5146106dc578063f9efde3014610719576101b7565b8063bcd57d04146105e0578063c87b56dd14610609578063cdc461ad14610646576101b7565b80639cb04aef116100c65780639cb04aef146105105780639d0669b11461054d578063a22cb4651461058e578063b88d4fde146105b7576101b7565b80639485cfed1461048f57806395d89b41146104ba5780639bb11c42146104e5576101b7565b80633ccfd60b116101595780636352211e116101335780636352211e146103ad5780636441473d146103ea57806370a08231146104275780638da5cb5b14610464576101b7565b80633ccfd60b146103305780633d07be7b1461034757806342842e0e14610384576101b7565b8063095ea7b311610195578063095ea7b31461026157806323b872dd1461028a578063321621d7146102b357806338fbf2c6146102f3576101b7565b806301ffc9a7146101bc57806306fdde03146101f9578063081812fc14610224575b600080fd5b3480156101c857600080fd5b506101e360048036038101906101de9190612a1d565b610744565b6040516101f09190612a65565b60405180910390f35b34801561020557600080fd5b5061020e610826565b60405161021b9190612b10565b60405180910390f35b34801561023057600080fd5b5061024b60048036038101906102469190612b68565b6108b8565b6040516102589190612bd6565b60405180910390f35b34801561026d57600080fd5b5061028860048036038101906102839190612c1d565b6108fe565b005b34801561029657600080fd5b506102b160048036038101906102ac9190612c5d565b610a15565b005b3480156102bf57600080fd5b506102da60048036038101906102d59190612b68565b610a75565b6040516102ea9493929190612cbf565b60405180910390f35b3480156102ff57600080fd5b5061031a60048036038101906103159190612b68565b610bb5565b6040516103279190612dd5565b60405180910390f35b34801561033c57600080fd5b50610345610d6b565b005b34801561035357600080fd5b5061036e60048036038101906103699190612df7565b610f15565b60405161037b9190612ea9565b60405180910390f35b34801561039057600080fd5b506103ab60048036038101906103a69190612c5d565b611074565b005b3480156103b957600080fd5b506103d460048036038101906103cf9190612b68565b611094565b6040516103e19190612bd6565b60405180910390f35b3480156103f657600080fd5b50610411600480360381019061040c9190612ecb565b61111a565b60405161041e9190612f0b565b60405180910390f35b34801561043357600080fd5b5061044e60048036038101906104499190612df7565b61114b565b60405161045b9190612f0b565b60405180910390f35b34801561047057600080fd5b50610479611202565b6040516104869190612bd6565b60405180910390f35b34801561049b57600080fd5b506104a4611228565b6040516104b19190612f0b565b60405180910390f35b3480156104c657600080fd5b506104cf61122e565b6040516104dc9190612b10565b60405180910390f35b3480156104f157600080fd5b506104fa6112c0565b6040516105079190612f0b565b60405180910390f35b34801561051c57600080fd5b5061053760048036038101906105329190612f26565b6112c6565b6040516105449190612a65565b60405180910390f35b34801561055957600080fd5b50610574600480360381019061056f9190612df7565b6112f5565b604051610585959493929190612f66565b60405180910390f35b34801561059a57600080fd5b506105b560048036038101906105b09190612fec565b6113d3565b005b3480156105c357600080fd5b506105de60048036038101906105d99190613161565b6113e9565b005b3480156105ec57600080fd5b5061060760048036038101906106029190613285565b61144b565b005b34801561061557600080fd5b50610630600480360381019061062b9190612b68565b6115b6565b60405161063d9190612b10565b60405180910390f35b34801561065257600080fd5b5061066d60048036038101906106689190612b68565b61161e565b60405161067a91906133bf565b60405180910390f35b34801561068f57600080fd5b506106aa60048036038101906106a59190612ecb565b6116da565b6040516106b79190612bd6565b60405180910390f35b6106da60048036038101906106d591906133e1565b61171c565b005b3480156106e857600080fd5b5061070360048036038101906106fe9190613450565b611aa9565b6040516107109190612a65565b60405180910390f35b34801561072557600080fd5b5061072e611b3d565b60405161073b9190612b10565b60405180910390f35b60007f80ac58cd000000000000000000000000000000000000000000000000000000007bffffffffffffffffffffffffffffffffffffffffffffffffffffffff1916827bffffffffffffffffffffffffffffffffffffffffffffffffffffffff1916148061080f57507f5b5e139f000000000000000000000000000000000000000000000000000000007bffffffffffffffffffffffffffffffffffffffffffffffffffffffff1916827bffffffffffffffffffffffffffffffffffffffffffffffffffffffff1916145b8061081f575061081e82611b76565b5b9050919050565b606060008054610835906134bf565b80601f0160208091040260200160405190810160405280929190818152602001828054610861906134bf565b80156108ae5780601f10610883576101008083540402835291602001916108ae565b820191906000526020600020905b81548152906001019060200180831161089157829003601f168201915b5050505050905090565b60006108c382611be0565b6004600083815260200190815260200160002060009054906101000a900473ffffffffffffffffffffffffffffffffffffffff169050919050565b600061090982611094565b90508073ffffffffffffffffffffffffffffffffffffffff168373ffffffffffffffffffffffffffffffffffffffff1603610979576040517f08c379a000000000000000000000000000000000000000000000000000000000815260040161097090613562565b60405180910390fd5b8073ffffffffffffffffffffffffffffffffffffffff16610998611c2b565b73ffffffffffffffffffffffffffffffffffffffff1614806109c757506109c6816109c1611c2b565b611aa9565b5b610a06576040517f08c379a00000000000000000000000000000000000000000000000000000000081526004016109fd906135f4565b60405180910390fd5b610a108383611c33565b505050565b610a26610a20611c2b565b82611cec565b610a65576040517f08c379a0000000000000000000000000000000000000000000000000000000008152600401610a5c90613686565b60405180910390fd5b610a70838383611d81565b505050565b600a602052806000526040600020600091509050806000015490806001018054610a9e906134bf565b80601f0160208091040260200160405190810160405280929190818152602001828054610aca906134bf565b8015610b175780601f10610aec57610100808354040283529160200191610b17565b820191906000526020600020905b815481529060010190602001808311610afa57829003601f168201915b505050505090806002015490806003018054610b32906134bf565b80601f0160208091040260200160405190810160405280929190818152602001828054610b5e906134bf565b8015610bab5780601f10610b8057610100808354040283529160200191610bab565b820191906000526020600020905b815481529060010190602001808311610b8e57829003601f168201915b5050505050905084565b610bbd612944565b600082118015610bcf57506007548211155b610c0e576040517f08c379a0000000000000000000000000000000000000000000000000000000008152600401610c05906136f2565b60405180910390fd5b600a600083815260200190815260200160002060405180608001604052908160008201548152602001600182018054610c46906134bf565b80601f0160208091040260200160405190810160405280929190818152602001828054610c72906134bf565b8015610cbf5780601f10610c9457610100808354040283529160200191610cbf565b820191906000526020600020905b815481529060010190602001808311610ca257829003601f168201915b5050505050815260200160028201548152602001600382018054610ce2906134bf565b80601f0160208091040260200160405190810160405280929190818152602001828054610d0e906134bf565b8015610d5b5780601f10610d3057610100808354040283529160200191610d5b565b820191906000526020600020905b815481529060010190602001808311610d3e57829003601f168201915b5050505050815250509050919050565b600660009054906101000a900473ffffffffffffffffffffffffffffffffffffffff1673ffffffffffffffffffffffffffffffffffffffff163373ffffffffffffffffffffffffffffffffffffffff1614610dfb576040517f08c379a0000000000000000000000000000000000000000000000000000000008152600401610df290613784565b60405180910390fd5b600047905060008111610e43576040517f08c379a0000000000000000000000000000000000000000000000000000000008152600401610e3a906137f0565b60405180910390fd5b6000600660009054906101000a900473ffffffffffffffffffffffffffffffffffffffff1673ffffffffffffffffffffffffffffffffffffffff1682604051610e8b90613841565b60006040518083038185875af1925050503d8060008114610ec8576040519150601f19603f3d011682016040523d82523d6000602084013e610ecd565b606091505b5050905080610f11576040517f08c379a0000000000000000000000000000000000000000000000000000000008152600401610f08906138a2565b60405180910390fd5b5050565b610f1d61296c565b600960008373ffffffffffffffffffffffffffffffffffffffff1673ffffffffffffffffffffffffffffffffffffffff1681526020019081526020016000206040518060a001604052908160008201548152602001600182015481526020016002820160009054906101000a900473ffffffffffffffffffffffffffffffffffffffff1673ffffffffffffffffffffffffffffffffffffffff1673ffffffffffffffffffffffffffffffffffffffff16815260200160038201548152602001600482018054610feb906134bf565b80601f0160208091040260200160405190810160405280929190818152602001828054611017906134bf565b80156110645780601f1061103957610100808354040283529160200191611064565b820191906000526020600020905b81548152906001019060200180831161104757829003601f168201915b5050505050815250509050919050565b61108f838383604051806020016040528060008152506113e9565b505050565b6000806110a08361207a565b9050600073ffffffffffffffffffffffffffffffffffffffff168173ffffffffffffffffffffffffffffffffffffffff1603611111576040517f08c379a00000000000000000000000000000000000000000000000000000000081526004016111089061390e565b60405180910390fd5b80915050919050565b600d602052816000526040600020818154811061113657600080fd5b90600052602060002001600091509150505481565b60008073ffffffffffffffffffffffffffffffffffffffff168273ffffffffffffffffffffffffffffffffffffffff16036111bb576040517f08c379a00000000000000000000000000000000000000000000000000000000081526004016111b2906139a0565b60405180910390fd5b600360008373ffffffffffffffffffffffffffffffffffffffff1673ffffffffffffffffffffffffffffffffffffffff168152602001908152602001600020549050919050565b600660009054906101000a900473ffffffffffffffffffffffffffffffffffffffff1681565b60075481565b60606001805461123d906134bf565b80601f0160208091040260200160405190810160405280929190818152602001828054611269906134bf565b80156112b65780601f1061128b576101008083540402835291602001916112b6565b820191906000526020600020905b81548152906001019060200180831161129957829003601f168201915b5050505050905090565b60085481565b600b6020528160005260406000206020528060005260406000206000915091509054906101000a900460ff1681565b60096020528060005260406000206000915090508060000154908060010154908060020160009054906101000a900473ffffffffffffffffffffffffffffffffffffffff1690806003015490806004018054611350906134bf565b80601f016020809104026020016040519081016040528092919081815260200182805461137c906134bf565b80156113c95780601f1061139e576101008083540402835291602001916113c9565b820191906000526020600020905b8154815290600101906020018083116113ac57829003601f168201915b5050505050905085565b6113e56113de611c2b565b83836120b7565b5050565b6113fa6113f4611c2b565b83611cec565b611439576040517f08c379a000000000000000000000000000000000000000000000000000000000815260040161143090613686565b60405180910390fd5b61144584848484612223565b50505050565b600660009054906101000a900473ffffffffffffffffffffffffffffffffffffffff1673ffffffffffffffffffffffffffffffffffffffff163373ffffffffffffffffffffffffffffffffffffffff16146114db576040517f08c379a00000000000000000000000000000000000000000000000000000000081526004016114d290613784565b60405180910390fd5b6000821161151e576040517f08c379a000000000000000000000000000000000000000000000000000000000815260040161151590613a0c565b60405180910390fd5b6007600081548092919061153190613a5b565b91905055506040518060800160405280600754815260200184815260200183815260200182815250600a6000600754815260200190815260200160002060008201518160000155602082015181600101908161158d9190613c4f565b506040820151816002015560608201518160030190816115ad9190613c4f565b50905050505050565b60606115c182611be0565b60006115cb61227f565b905060008151116115eb5760405180602001604052806000815250611616565b806115f584612296565b604051602001611606929190613d5d565b6040516020818303038152906040525b915050919050565b606060008211801561163257506007548211155b611671576040517f08c379a0000000000000000000000000000000000000000000000000000000008152600401611668906136f2565b60405180910390fd5b600d60008381526020019081526020016000208054806020026020016040519081016040528092919081815260200182805480156116ce57602002820191906000526020600020905b8154815260200190600101908083116116ba575b50505050509050919050565b600c6020528160005260406000206020528060005260406000206000915091509054906101000a900473ffffffffffffffffffffffffffffffffffffffff1681565b60008311801561172e57506007548311155b61176d576040517f08c379a0000000000000000000000000000000000000000000000000000000008152600401611764906136f2565b60405180910390fd5b600a6000848152602001908152602001600020600201543410156117c6576040517f08c379a00000000000000000000000000000000000000000000000000000000081526004016117bd90613dcd565b60405180910390fd5b600b600084815260200190815260200160002060008373ffffffffffffffffffffffffffffffffffffffff1673ffffffffffffffffffffffffffffffffffffffff16815260200190815260200160002060009054906101000a900460ff1615611864576040517f08c379a000000000000000000000000000000000000000000000000000000000815260040161185b90613e5f565b60405180910390fd5b6008600081548092919061187790613a5b565b91905055506040518060a0016040528060085481526020018481526020018373ffffffffffffffffffffffffffffffffffffffff168152602001600a600086815260200190815260200160002060020154815260200182815250600960008473ffffffffffffffffffffffffffffffffffffffff1673ffffffffffffffffffffffffffffffffffffffff168152602001908152602001600020600082015181600001556020820151816001015560408201518160020160006101000a81548173ffffffffffffffffffffffffffffffffffffffff021916908373ffffffffffffffffffffffffffffffffffffffff16021790555060608201518160030155608082015181600401908161198a9190613c4f565b509050506001600b600085815260200190815260200160002060008473ffffffffffffffffffffffffffffffffffffffff1673ffffffffffffffffffffffffffffffffffffffff16815260200190815260200160002060006101000a81548160ff02191690831515021790555081600c60008581526020019081526020016000206000600854815260200190815260200160002060006101000a81548173ffffffffffffffffffffffffffffffffffffffff021916908373ffffffffffffffffffffffffffffffffffffffff160217905550600d60008481526020019081526020016000206008549080600181540180825580915050600190039060005260206000200160009091909190915055611aa482600854612364565b505050565b6000600560008473ffffffffffffffffffffffffffffffffffffffff1673ffffffffffffffffffffffffffffffffffffffff16815260200190815260200160002060008373ffffffffffffffffffffffffffffffffffffffff1673ffffffffffffffffffffffffffffffffffffffff16815260200190815260200160002060009054906101000a900460ff16905092915050565b6040518060400160405280600e81526020017f4441554c4154204855535341494e00000000000000000000000000000000000081525081565b60007f01ffc9a7000000000000000000000000000000000000000000000000000000007bffffffffffffffffffffffffffffffffffffffffffffffffffffffff1916827bffffffffffffffffffffffffffffffffffffffffffffffffffffffff1916149050919050565b611be981612382565b611c28576040517f08c379a0000000000000000000000000000000000000000000000000000000008152600401611c1f9061390e565b60405180910390fd5b50565b600033905090565b816004600083815260200190815260200160002060006101000a81548173ffffffffffffffffffffffffffffffffffffffff021916908373ffffffffffffffffffffffffffffffffffffffff160217905550808273ffffffffffffffffffffffffffffffffffffffff16611ca683611094565b73ffffffffffffffffffffffffffffffffffffffff167f8c5be1e5ebec7d5bd14f71427d1e84f3dd0314c0f7b2291e5b200ac8c7c3b92560405160405180910390a45050565b600080611cf883611094565b90508073ffffffffffffffffffffffffffffffffffffffff168473ffffffffffffffffffffffffffffffffffffffff161480611d3a5750611d398185611aa9565b5b80611d7857508373ffffffffffffffffffffffffffffffffffffffff16611d60846108b8565b73ffffffffffffffffffffffffffffffffffffffff16145b91505092915050565b8273ffffffffffffffffffffffffffffffffffffffff16611da182611094565b73ffffffffffffffffffffffffffffffffffffffff1614611df7576040517f08c379a0000000000000000000000000000000000000000000000000000000008152600401611dee90613ef1565b60405180910390fd5b600073ffffffffffffffffffffffffffffffffffffffff168273ffffffffffffffffffffffffffffffffffffffff1603611e66576040517f08c379a0000000000000000000000000000000000000000000000000000000008152600401611e5d90613f83565b60405180910390fd5b611e7383838360016123c3565b8273ffffffffffffffffffffffffffffffffffffffff16611e9382611094565b73ffffffffffffffffffffffffffffffffffffffff1614611ee9576040517f08c379a0000000000000000000000000000000000000000000000000000000008152600401611ee090613ef1565b60405180910390fd5b6004600082815260200190815260200160002060006101000a81549073ffffffffffffffffffffffffffffffffffffffff02191690556001600360008573ffffffffffffffffffffffffffffffffffffffff1673ffffffffffffffffffffffffffffffffffffffff168152602001908152602001600020600082825403925050819055506001600360008473ffffffffffffffffffffffffffffffffffffffff1673ffffffffffffffffffffffffffffffffffffffff16815260200190815260200160002060008282540192505081905550816002600083815260200190815260200160002060006101000a81548173ffffffffffffffffffffffffffffffffffffffff021916908373ffffffffffffffffffffffffffffffffffffffff160217905550808273ffffffffffffffffffffffffffffffffffffffff168473ffffffffffffffffffffffffffffffffffffffff167fddf252ad1be2c89b69c2b068fc378daa952ba7f163c4a11628f55a4df523b3ef60405160405180910390a461207583838360016123c9565b505050565b60006002600083815260200190815260200160002060009054906101000a900473ffffffffffffffffffffffffffffffffffffffff169050919050565b8173ffffffffffffffffffffffffffffffffffffffff168373ffffffffffffffffffffffffffffffffffffffff1603612125576040517f08c379a000000000000000000000000000000000000000000000000000000000815260040161211c90613fef565b60405180910390fd5b80600560008573ffffffffffffffffffffffffffffffffffffffff1673ffffffffffffffffffffffffffffffffffffffff16815260200190815260200160002060008473ffffffffffffffffffffffffffffffffffffffff1673ffffffffffffffffffffffffffffffffffffffff16815260200190815260200160002060006101000a81548160ff0219169083151502179055508173ffffffffffffffffffffffffffffffffffffffff168373ffffffffffffffffffffffffffffffffffffffff167f17307eab39ab6107e8899845ad3d59bd9653f200f220920489ca2b5937696c31836040516122169190612a65565b60405180910390a3505050565b61222e848484611d81565b61223a848484846123cf565b612279576040517f08c379a000000000000000000000000000000000000000000000000000000000815260040161227090614081565b60405180910390fd5b50505050565b606060405180602001604052806000815250905090565b6060600060016122a584612556565b01905060008167ffffffffffffffff8111156122c4576122c3613036565b5b6040519080825280601f01601f1916602001820160405280156122f65781602001600182028036833780820191505090505b509050600082602001820190505b600115612359578080600190039150507f3031323334353637383961626364656600000000000000000000000000000000600a86061a8153600a858161234d5761234c6140a1565b5b04945060008503612304575b819350505050919050565b61237e8282604051806020016040528060008152506126a9565b5050565b60008073ffffffffffffffffffffffffffffffffffffffff166123a48361207a565b73ffffffffffffffffffffffffffffffffffffffff1614159050919050565b50505050565b50505050565b60006123f08473ffffffffffffffffffffffffffffffffffffffff16612704565b15612549578373ffffffffffffffffffffffffffffffffffffffff1663150b7a02612419611c2b565b8786866040518563ffffffff1660e01b815260040161243b9493929190614125565b6020604051808303816000875af192505050801561247757506040513d601f19601f820116820180604052508101906124749190614186565b60015b6124f9573d80600081146124a7576040519150601f19603f3d011682016040523d82523d6000602084013e6124ac565b606091505b5060008151036124f1576040517f08c379a00000000000000000000000000000000000000000000000000000000081526004016124e890614081565b60405180910390fd5b805181602001fd5b63150b7a0260e01b7bffffffffffffffffffffffffffffffffffffffffffffffffffffffff1916817bffffffffffffffffffffffffffffffffffffffffffffffffffffffff19161491505061254e565b600190505b949350505050565b600080600090507a184f03e93ff9f4daa797ed6e38ed64bf6a1f01000000000000000083106125b4577a184f03e93ff9f4daa797ed6e38ed64bf6a1f01000000000000000083816125aa576125a96140a1565b5b0492506040810190505b6d04ee2d6d415b85acef810000000083106125f1576d04ee2d6d415b85acef810000000083816125e7576125e66140a1565b5b0492506020810190505b662386f26fc10000831061262057662386f26fc100008381612616576126156140a1565b5b0492506010810190505b6305f5e1008310612649576305f5e100838161263f5761263e6140a1565b5b0492506008810190505b612710831061266e576127108381612664576126636140a1565b5b0492506004810190505b606483106126915760648381612687576126866140a1565b5b0492506002810190505b600a83106126a0576001810190505b80915050919050565b6126b38383612727565b6126c060008484846123cf565b6126ff576040517f08c379a00000000000000000000000000000000000000000000000000000000081526004016126f690614081565b60405180910390fd5b505050565b6000808273ffffffffffffffffffffffffffffffffffffffff163b119050919050565b600073ffffffffffffffffffffffffffffffffffffffff168273ffffffffffffffffffffffffffffffffffffffff1603612796576040517f08c379a000000000000000000000000000000000000000000000000000000000815260040161278d906141ff565b60405180910390fd5b61279f81612382565b156127df576040517f08c379a00000000000000000000000000000000000000000000000000000000081526004016127d69061426b565b60405180910390fd5b6127ed6000838360016123c3565b6127f681612382565b15612836576040517f08c379a000000000000000000000000000000000000000000000000000000000815260040161282d9061426b565b60405180910390fd5b6001600360008473ffffffffffffffffffffffffffffffffffffffff1673ffffffffffffffffffffffffffffffffffffffff16815260200190815260200160002060008282540192505081905550816002600083815260200190815260200160002060006101000a81548173ffffffffffffffffffffffffffffffffffffffff021916908373ffffffffffffffffffffffffffffffffffffffff160217905550808273ffffffffffffffffffffffffffffffffffffffff16600073ffffffffffffffffffffffffffffffffffffffff167fddf252ad1be2c89b69c2b068fc378daa952ba7f163c4a11628f55a4df523b3ef60405160405180910390a46129406000838360016123c9565b5050565b6040518060800160405280600081526020016060815260200160008152602001606081525090565b6040518060a001604052806000815260200160008152602001600073ffffffffffffffffffffffffffffffffffffffff16815260200160008152602001606081525090565b6000604051905090565b600080fd5b600080fd5b60007fffffffff0000000000000000000000000000000000000000000000000000000082169050919050565b6129fa816129c5565b8114612a0557600080fd5b50565b600081359050612a17816129f1565b92915050565b600060208284031215612a3357612a326129bb565b5b6000612a4184828501612a08565b91505092915050565b60008115159050919050565b612a5f81612a4a565b82525050565b6000602082019050612a7a6000830184612a56565b92915050565b600081519050919050565b600082825260208201905092915050565b60005b83811015612aba578082015181840152602081019050612a9f565b60008484015250505050565b6000601f19601f8301169050919050565b6000612ae282612a80565b612aec8185612a8b565b9350612afc818560208601612a9c565b612b0581612ac6565b840191505092915050565b60006020820190508181036000830152612b2a8184612ad7565b905092915050565b6000819050919050565b612b4581612b32565b8114612b5057600080fd5b50565b600081359050612b6281612b3c565b92915050565b600060208284031215612b7e57612b7d6129bb565b5b6000612b8c84828501612b53565b91505092915050565b600073ffffffffffffffffffffffffffffffffffffffff82169050919050565b6000612bc082612b95565b9050919050565b612bd081612bb5565b82525050565b6000602082019050612beb6000830184612bc7565b92915050565b612bfa81612bb5565b8114612c0557600080fd5b50565b600081359050612c1781612bf1565b92915050565b60008060408385031215612c3457612c336129bb565b5b6000612c4285828601612c08565b9250506020612c5385828601612b53565b9150509250929050565b600080600060608486031215612c7657612c756129bb565b5b6000612c8486828701612c08565b9350506020612c9586828701612c08565b9250506040612ca686828701612b53565b9150509250925092565b612cb981612b32565b82525050565b6000608082019050612cd46000830187612cb0565b8181036020830152612ce68186612ad7565b9050612cf56040830185612cb0565b8181036060830152612d078184612ad7565b905095945050505050565b612d1b81612b32565b82525050565b600082825260208201905092915050565b6000612d3d82612a80565b612d478185612d21565b9350612d57818560208601612a9c565b612d6081612ac6565b840191505092915050565b6000608083016000830151612d836000860182612d12565b5060208301518482036020860152612d9b8282612d32565b9150506040830151612db06040860182612d12565b5060608301518482036060860152612dc88282612d32565b9150508091505092915050565b60006020820190508181036000830152612def8184612d6b565b905092915050565b600060208284031215612e0d57612e0c6129bb565b5b6000612e1b84828501612c08565b91505092915050565b612e2d81612bb5565b82525050565b600060a083016000830151612e4b6000860182612d12565b506020830151612e5e6020860182612d12565b506040830151612e716040860182612e24565b506060830151612e846060860182612d12565b5060808301518482036080860152612e9c8282612d32565b9150508091505092915050565b60006020820190508181036000830152612ec38184612e33565b905092915050565b60008060408385031215612ee257612ee16129bb565b5b6000612ef085828601612b53565b9250506020612f0185828601612b53565b9150509250929050565b6000602082019050612f206000830184612cb0565b92915050565b60008060408385031215612f3d57612f3c6129bb565b5b6000612f4b85828601612b53565b9250506020612f5c85828601612c08565b9150509250929050565b600060a082019050612f7b6000830188612cb0565b612f886020830187612cb0565b612f956040830186612bc7565b612fa26060830185612cb0565b8181036080830152612fb48184612ad7565b90509695505050505050565b612fc981612a4a565b8114612fd457600080fd5b50565b600081359050612fe681612fc0565b92915050565b60008060408385031215613003576130026129bb565b5b600061301185828601612c08565b925050602061302285828601612fd7565b9150509250929050565b600080fd5b600080fd5b7f4e487b7100000000000000000000000000000000000000000000000000000000600052604160045260246000fd5b61306e82612ac6565b810181811067ffffffffffffffff8211171561308d5761308c613036565b5b80604052505050565b60006130a06129b1565b90506130ac8282613065565b919050565b600067ffffffffffffffff8211156130cc576130cb613036565b5b6130d582612ac6565b9050602081019050919050565b82818337600083830152505050565b60006131046130ff846130b1565b613096565b9050828152602081018484840111156131205761311f613031565b5b61312b8482856130e2565b509392505050565b600082601f8301126131485761314761302c565b5b81356131588482602086016130f1565b91505092915050565b6000806000806080858703121561317b5761317a6129bb565b5b600061318987828801612c08565b945050602061319a87828801612c08565b93505060406131ab87828801612b53565b925050606085013567ffffffffffffffff8111156131cc576131cb6129c0565b5b6131d887828801613133565b91505092959194509250565b600067ffffffffffffffff8211156131ff576131fe613036565b5b61320882612ac6565b9050602081019050919050565b6000613228613223846131e4565b613096565b90508281526020810184848401111561324457613243613031565b5b61324f8482856130e2565b509392505050565b600082601f83011261326c5761326b61302c565b5b813561327c848260208601613215565b91505092915050565b60008060006060848603121561329e5761329d6129bb565b5b600084013567ffffffffffffffff8111156132bc576132bb6129c0565b5b6132c886828701613257565b93505060206132d986828701612b53565b925050604084013567ffffffffffffffff8111156132fa576132f96129c0565b5b61330686828701613257565b9150509250925092565b600081519050919050565b600082825260208201905092915050565b6000819050602082019050919050565b60006133488383612d12565b60208301905092915050565b6000602082019050919050565b600061336c82613310565b613376818561331b565b93506133818361332c565b8060005b838110156133b2578151613399888261333c565b97506133a483613354565b925050600181019050613385565b5085935050505092915050565b600060208201905081810360008301526133d98184613361565b905092915050565b6000806000606084860312156133fa576133f96129bb565b5b600061340886828701612b53565b935050602061341986828701612c08565b925050604084013567ffffffffffffffff81111561343a576134396129c0565b5b61344686828701613257565b9150509250925092565b60008060408385031215613467576134666129bb565b5b600061347585828601612c08565b925050602061348685828601612c08565b9150509250929050565b7f4e487b7100000000000000000000000000000000000000000000000000000000600052602260045260246000fd5b600060028204905060018216806134d757607f821691505b6020821081036134ea576134e9613490565b5b50919050565b7f4552433732313a20617070726f76616c20746f2063757272656e74206f776e6560008201527f7200000000000000000000000000000000000000000000000000000000000000602082015250565b600061354c602183612a8b565b9150613557826134f0565b604082019050919050565b6000602082019050818103600083015261357b8161353f565b9050919050565b7f4552433732313a20617070726f76652063616c6c6572206973206e6f7420746f60008201527f6b656e206f776e6572206f7220617070726f76656420666f7220616c6c000000602082015250565b60006135de603d83612a8b565b91506135e982613582565b604082019050919050565b6000602082019050818103600083015261360d816135d1565b9050919050565b7f4552433732313a2063616c6c6572206973206e6f7420746f6b656e206f776e6560008201527f72206f7220617070726f76656400000000000000000000000000000000000000602082015250565b6000613670602d83612a8b565b915061367b82613614565b604082019050919050565b6000602082019050818103600083015261369f81613663565b9050919050565b7f496e76616c6964206d656d626572736869702049440000000000000000000000600082015250565b60006136dc601583612a8b565b91506136e7826136a6565b602082019050919050565b6000602082019050818103600083015261370b816136cf565b9050919050565b7f4f6e6c79206f776e65722063616e2063616c6c20746869732066756e6374696f60008201527f6e00000000000000000000000000000000000000000000000000000000000000602082015250565b600061376e602183612a8b565b915061377982613712565b604082019050919050565b6000602082019050818103600083015261379d81613761565b9050919050565b7f4e6f2062616c616e636520746f20776974686472617700000000000000000000600082015250565b60006137da601683612a8b565b91506137e5826137a4565b602082019050919050565b60006020820190508181036000830152613809816137cd565b9050919050565b600081905092915050565b50565b600061382b600083613810565b91506138368261381b565b600082019050919050565b600061384c8261381e565b9150819050919050565b7f5769746864726177206661696c65640000000000000000000000000000000000600082015250565b600061388c600f83612a8b565b915061389782613856565b602082019050919050565b600060208201905081810360008301526138bb8161387f565b9050919050565b7f4552433732313a20696e76616c696420746f6b656e2049440000000000000000600082015250565b60006138f8601883612a8b565b9150613903826138c2565b602082019050919050565b60006020820190508181036000830152613927816138eb565b9050919050565b7f4552433732313a2061646472657373207a65726f206973206e6f74206120766160008201527f6c6964206f776e65720000000000000000000000000000000000000000000000602082015250565b600061398a602983612a8b565b91506139958261392e565b604082019050919050565b600060208201905081810360008301526139b98161397d565b9050919050565b7f436f7374206d7573742062652067726561746572207468616e207a65726f0000600082015250565b60006139f6601e83612a8b565b9150613a01826139c0565b602082019050919050565b60006020820190508181036000830152613a25816139e9565b9050919050565b7f4e487b7100000000000000000000000000000000000000000000000000000000600052601160045260246000fd5b6000613a6682612b32565b91507fffffffffffffffffffffffffffffffffffffffffffffffffffffffffffffffff8203613a9857613a97613a2c565b5b600182019050919050565b60008190508160005260206000209050919050565b60006020601f8301049050919050565b600082821b905092915050565b600060088302613b057fffffffffffffffffffffffffffffffffffffffffffffffffffffffffffffffff82613ac8565b613b0f8683613ac8565b95508019841693508086168417925050509392505050565b6000819050919050565b6000613b4c613b47613b4284612b32565b613b27565b612b32565b9050919050565b6000819050919050565b613b6683613b31565b613b7a613b7282613b53565b848454613ad5565b825550505050565b600090565b613b8f613b82565b613b9a818484613b5d565b505050565b5b81811015613bbe57613bb3600082613b87565b600181019050613ba0565b5050565b601f821115613c0357613bd481613aa3565b613bdd84613ab8565b81016020851015613bec578190505b613c00613bf885613ab8565b830182613b9f565b50505b505050565b600082821c905092915050565b6000613c2660001984600802613c08565b1980831691505092915050565b6000613c3f8383613c15565b9150826002028217905092915050565b613c5882612a80565b67ffffffffffffffff811115613c7157613c70613036565b5b613c7b82546134bf565b613c86828285613bc2565b600060209050601f831160018114613cb95760008415613ca7578287015190505b613cb18582613c33565b865550613d19565b601f198416613cc786613aa3565b60005b82811015613cef57848901518255600182019150602085019450602081019050613cca565b86831015613d0c5784890151613d08601f891682613c15565b8355505b6001600288020188555050505b505050505050565b600081905092915050565b6000613d3782612a80565b613d418185613d21565b9350613d51818560208601612a9c565b80840191505092915050565b6000613d698285613d2c565b9150613d758284613d2c565b91508190509392505050565b7f496e73756666696369656e742062616c616e6365000000000000000000000000600082015250565b6000613db7601483612a8b565b9150613dc282613d81565b602082019050919050565b60006020820190508181036000830152613de681613daa565b9050919050565b7f5573657220616c7265616479206f776e732074686973206d656d62657273686960008201527f7000000000000000000000000000000000000000000000000000000000000000602082015250565b6000613e49602183612a8b565b9150613e5482613ded565b604082019050919050565b60006020820190508181036000830152613e7881613e3c565b9050919050565b7f4552433732313a207472616e736665722066726f6d20696e636f72726563742060008201527f6f776e6572000000000000000000000000000000000000000000000000000000602082015250565b6000613edb602583612a8b565b9150613ee682613e7f565b604082019050919050565b60006020820190508181036000830152613f0a81613ece565b9050919050565b7f4552433732313a207472616e7366657220746f20746865207a65726f2061646460008201527f7265737300000000000000000000000000000000000000000000000000000000602082015250565b6000613f6d602483612a8b565b9150613f7882613f11565b604082019050919050565b60006020820190508181036000830152613f9c81613f60565b9050919050565b7f4552433732313a20617070726f766520746f2063616c6c657200000000000000600082015250565b6000613fd9601983612a8b565b9150613fe482613fa3565b602082019050919050565b6000602082019050818103600083015261400881613fcc565b9050919050565b7f4552433732313a207472616e7366657220746f206e6f6e20455243373231526560008201527f63656976657220696d706c656d656e7465720000000000000000000000000000602082015250565b600061406b603283612a8b565b91506140768261400f565b604082019050919050565b6000602082019050818103600083015261409a8161405e565b9050919050565b7f4e487b7100000000000000000000000000000000000000000000000000000000600052601260045260246000fd5b600081519050919050565b600082825260208201905092915050565b60006140f7826140d0565b61410181856140db565b9350614111818560208601612a9c565b61411a81612ac6565b840191505092915050565b600060808201905061413a6000830187612bc7565b6141476020830186612bc7565b6141546040830185612cb0565b818103606083015261416681846140ec565b905095945050505050565b600081519050614180816129f1565b92915050565b60006020828403121561419c5761419b6129bb565b5b60006141aa84828501614171565b91505092915050565b7f4552433732313a206d696e7420746f20746865207a65726f2061646472657373600082015250565b60006141e9602083612a8b565b91506141f4826141b3565b602082019050919050565b60006020820190508181036000830152614218816141dc565b9050919050565b7f4552433732313a20746f6b656e20616c7265616479206d696e74656400000000600082015250565b6000614255601c83612a8b565b91506142608261421f565b602082019050919050565b6000602082019050818103600083015261428481614248565b905091905056fea2646970667358221220bc9cb4b8af64aac662f950bfba936c651258e91aec85870a1258e44824326b3764736f6c63430008110033",
  "linkReferences": {},
  "deployedLinkReferences": {}
}